:020000040800F2
:1000000000000120C5020008CB020008CF02000852
:1000100041030008450300088D03000800000000AC
:10002000000000000000000000000000D5030008F0
:10003000D903000800000000DD0300085118000883
:10004000F1030008F1030008F1030008F1030008C0
:10005000F1030008F103000825120008411200080E
:10006000F1030008F1030008F1030008F1030008A0
:10007000F1030008F1030008F1030008F103000890
:10008000F1030008F1030008F1030008000000007C
:10009000000000000000000000000000F103000864
:1000A000F1030008F1030008F1030008F103000860
:1000B000551A0008711B0008F1030008F10300083D
:1000C000F1030008F1030008F1030008F103000840
:1000D000F1030008F1030008F1030008000000002C
:1000E000F1030008F1030008F1030008000000001C
:1000F000000000000000000000000000F103000804
:1001000000000000F1030008F1030008F1030008FB
:1001100000000000000000000000000000000000DF
:10012000F1030008F1030008F1030008F1030008DF
:10013000F1030008000000000000000000000000C3
:10014000000000000000000000000000F1030008B3
:10015000F1030008F1030008F1030008F1030008AF
:10016000F1030008F1030008000000000000000097
:10017000000000000000000000000000000000007F
:1001800000000000F1030008000000000000000073
:10019000F103000800B583B000F040FE384B394A47
:1001A0001360394A1360394900E02146384B9942BF
:1001B0000BD20A684B6801F10C0488689842F4D9A4
:1001C0001168196004330432F8E72E4B1A68314B7A
:1001D0009A4200D0FEE72C4B1A682F4B9A42F9D175
:1001E000274B2E4A13602E4A13602E4B05E0002049
:1001F000106004329342FAD80B462B4A934204D241
:10020000194651F8082B5B68F4E7244B1B6813B9B7
:10021000234B1B6803B1FEE701F062FD694601A8AC
:1002200000F08EFD214C224BE41AA4100025AC42B4
:1002300014DC204C204BE41AA4100025AC4213DC43
:100240000099019801F0D0FD05461C4C1C4BE41AA6
:10025000A410002C0EDC284600F044FD144B53F88B
:10026000253098470135E2E7134B53F8253098477E
:100270000135E3E7013C124B53F824309847E8E797
:10028000BABADECA0000002078000020F40300089B
:100290000C04000878563412325476987C00002002
:1002A000880100200C0400081C0400081C0400083D
:1002B0001C0400081C0400081C0400081C0400089E
:1002C0001C04000808B5FFF765FF00BEFEE71EF03E
:1002D000040F0CBFEFF30880EFF309807146414A29
:1002E00010472DE9F04182B004468846124B5E6B00
:1002F0009F6B9D6A1B6B13F0020F03D00E4BDB6AE2
:10030000002B0CDB0D4800F02DFDCDF800803B46A6
:1003100032462946204600F08DFD00BEFEE74BF632
:10032000AB6100F001FE0028ECD0034B4FF000421F
:10033000DA6202B0BDE8F08100ED00E0282B000891
:1003400000BEFEE71EF0040F0CBFEFF30880EFF3D2
:1003500009807146244A10472DE9F04182B00446D5
:100360008846084B5E6B9F6B9D6A074800F0FAFC5D
:10037000CDF800803B4632462946204600F05AFD23
:1003800000BEFEE700ED00E0382B00081EF0040F71
:100390000CBFEFF30880EFF309807146134A104752
:1003A0002DE9F04182B004468846084B5E6B9F6B96
:1003B0009D6A074800F0D6FCCDF800803B463246E7
:1003C0002946204600F036FD00BEFEE700ED00E0C5
:1003D000442B000800BEFEE700BEFEE700BEFEE7BD
:1003E00070470000E302000859030008A103000859
:0403F00000BEFEE766
:1003F40048E00208000000207C00002048E00208D9
:1004040000000010000000107C0000208C0100207F
:080414000000001000000010C0
:1004200010B50446074B1868074BA3FB0030800942
:1004300000F090F8002221464FF0FF3000F044F821
:10044000002010BD0C000020D34D621008B50B4BEE
:100450001A6842F400721A601A6842F480621A60E4
:100460001A6842F480721A60032000F00FF80F201F
:10047000FFF7D6FF01F0F2FD002008BD003C02406E
:10048000014B1868704700BF8001002010B504467A
:10049000C31E042B0FD80A4AD36823F4E0631B045D
:1004A0001B0C240204F4E064234343F0BF6343F4D1
:1004B0000033D36010BDA421024800F049FCEAE7F4
:1004C00000ED00E05829000870B505460C461646B8
:1004D0000F2A25D80F2C28D81B4BDB68C3F3022327
:1004E000C3F10702042A28BF0422191D062921D9B5
:1004F000033B4FF0FF3101FA02F224EA02049C4070
:1005000001FA03F326EA03063443002D14DB240129
:10051000E4B205F1604505F5614585F8004370BD1D
:10052000BC210A4800F014FCD4E7BD21074800F0C4
:100530000FFCD1E70023DCE705F00F052401E4B24E
:10054000034B5C55EBE700BF00ED00E058290008C5
:1005500014ED00E00138B0F1807F0AD2064B5860FC
:10056000064AF02182F823100020986007221A60C2
:1005700070470120704700BF10E000E000ED00E090
:1005800010B50446042800D038B9042C0BD0094A11
:10059000136823F00403136010BD40F2B311064842
:1005A00000F0D6FBF1E7034A136843F0040313603D
:1005B000F2E700BF10E000E05829000830B583B032
:1005C000044603680F2B29D8236813F0010F3DD090
:1005D0006368012B01D9052B25D1A34B9B6803F040
:1005E0000C03042B29D0A04B9B6803F00C03082BB1
:1005F0001ED022799D4B1A706368002B50D0FFF7F4
:100600003FFF0546984B1B6813F4003F1ED1FFF7D0
:1006100037FF401B6428F5D90320E3E1F521944816
:1006200000F096FBD0E7FA21914800F091FBD4E767
:100630008D4B5B6813F4800FDBD08B4B1B6813F47E
:10064000003F03D06368002B00F0C981236813F0DA
:10065000020F5DD0E368012B31D823691F2B34D8FA
:10066000814B9B6813F00C0F3AD07F4B9B6803F0D3
:100670000C03082B2FD0E368002B74D07D4B012294
:100680001A60FFF7FDFE0546774B1B6813F0020F5B
:100690005AD1FFF7F5FE401B0228F5D90320A1E14E
:1006A000FFF7EEFE0546704B1B6813F4003FCDD0FC
:1006B000FFF7E6FE401B6428F5D9032092E14FF4D2
:1006C00096716B4800F044FBC7E740F22D11684873
:1006D00000F03EFBC4E7644B5B6813F4800FCAD1A3
:1006E000614B1B6813F0020F04D0E368012B01D0AB
:1006F000012077E15C48036823F0F8032169F822C0
:1007000092FAA2F2B2FA82F201FA02F21343036001
:10071000236813F0080F50D06369012B35D8636943
:10072000002B38D0544B01221A60FFF7A9FE054672
:100730004D4B5B6F13F0020F3FD1FFF7A1FE401B43
:100740000228F5D903204DE14748036823F0F80358
:100750002169F82292FAA2F2B2FA82F201FA02F2C6
:1007600013430360D4E7434B00221A60FFF788FE6F
:1007700005463D4B1B6813F0020FC9D0FFF780FE02
:10078000401B0228F5D903202CE140F26D113848B6
:1007900000F0DEFAC3E7384B00221A60FFF770FE64
:1007A0000546314B5B6F13F0020F06D0FFF768FE72
:1007B000401B0228F5D9032014E1236813F0040F2D
:1007C00060D0A368012B01D9052B1FD10023019311
:1007D000254B1A6C42F080521A641B6C03F0805354
:1007E0000193019B254A136843F480731360FFF75C
:1007F00047FE0546214B1B6813F4807F0CD1FFF7A1
:100800003FFE401B0228F5D90320EBE040F2971190
:10081000174800F09DFAD9E7227A194B1A70A3689D
:1008200083B1FFF72DFE05460F4B1B6F13F0020F30
:1008300028D1FFF725FE401B41F288339842F3D9B7
:100840000320CFE0FFF71CFE0546074B1B6F13F09C
:10085000020F17D0FFF714FE401B41F28833984275
:10086000F3D90320BEE000BF003802400238024046
:100870009C29000800004742800E4742007000405B
:1008800070380240A369022B39D8A369002B00F00D
:10089000A880564A926802F00C02082A00F0A48050
:1008A000022B40F08880E36913B1B3F5800F2CD19F
:1008B000236A3F2B2FD8636A323BB3F5BF7F30D812
:1008C000A36A022B05D0042B03D0062B01D0082BE2
:1008D0002DD1E36A043B0B2B2FD8454B00221A6025
:1008E000FFF7CEFD0546414B1B6813F0007F2AD071
:1008F000FFF7C6FD401B0228F5D9032072E04FF434
:10090000E6713C4800F024FABFE740F2D5113948BF
:1009100000F01EFACCE74FF4EB71364800F018FAFD
:10092000C9E740F2D711334800F012FAC8E74FF494
:10093000EC71304800F00CFACBE740F2D9112D48A9
:1009400000F006FAC9E7E369226A1343616A47F6D1
:10095000C07292FAA2F2B2FA82F201FA02F21343E0
:10096000A26A5208013A4FF4403191FAA1F1B1FA6A
:1009700081F18A401343E16A4FF0706292FAA2F269
:10098000B2FA82F201FA02F21343184A5360184B8A
:1009900001221A60FFF774FD0446144B1B6813F024
:1009A000007F06D1FFF76CFD001B0228F5D903205C
:1009B00018E0002016E00E4B00221A60FFF760FDE1
:1009C00004460A4B1B6813F0007F06D0FFF758FD62
:1009D000001B0228F5D9032004E0002002E00120DA
:1009E00000E0002003B030BD0120FBE700380240EA
:1009F000600047429C2900081F4B9B6803F00C03D2
:100A0000082B36D11C4B586800F03F005B6813F48C
:100A1000800F1ED0194AB2FBF0F2174B586847F608
:100A2000C073184093FAA3F3B3FA83F3D84000FBE2
:100A300002F0114B5B6803F440334FF4403292FAFA
:100A4000A2F2B2FA82F2D34001335B00B0FBF3F0C2
:100A500070470A4AB2FBF0F2074B586847F6C0737A
:100A6000184093FAA3F3B3FA83F3D84000FB02F0E3
:100A7000DFE70248704700BF003802400024F4005E
:100A800070B504460D460368013B0E2B11D8072DA7
:100A900015D88C4B1B6803F00F03AB4215D2EBB299
:100AA000884A1370136803F00F03AB420DD0012086
:100AB00070BD40F23721844800F04AF9E7E74FF46F
:100AC0000E71814800F044F9E3E7236813F0020F48
:100AD00018D0A3687BB1802B0DD0902B0BD0A02B0E
:100AE00009D0B02B07D0C02B05D0D02B03D0E02BE2
:100AF00001D0F02B37D1754A936823F0F003A16839
:100B00000B439360236813F0010F73D06368032BCA
:100B10002FD86368012B32D09A1E012A36D96B4A2E
:100B2000126812F0020F00F0CA8068498A6822F049
:100B3000030213438B60FFF7A3FC06466368012B97
:100B40002BD0022B38D0032B45D0604B9B6813F081
:100B50000C0F4FD0FFF794FC801B41F28833984272
:100B6000F3D90320A4E740F24F21574800F0F0F8F2
:100B7000C1E740F25621544800F0EAF8C9E7534A69
:100B8000126812F4003FD0D1012091E74F4A126859
:100B900012F0007FC9D101208AE74C4B9B6803F01B
:100BA0000C03042B26D0FFF76BFC801B41F288332B
:100BB0009842F2D903207BE7444B9B6803F00C0377
:100BC000082B17D0FFF75CFC801B41F2883398425A
:100BD000F2D903206CE73D4B9B6803F00C030C2B10
:100BE00008D0FFF74DFC801B41F288339842F2D9C0
:100BF00003205DE7334B1B6803F00F03AB4209D9B9
:100C0000EAB2304B1A701B6803F00F03AB4201D0FD
:100C100001204DE7236813F0040F14D0E3685BB1A3
:100C2000B3F5805F08D0B3F5A05F05D0B3F5C05F22
:100C300002D0B3F5E05F36D1244A936823F4E05341
:100C4000E1680B439360236813F0080F15D0236904
:100C50005BB1B3F5805F08D0B3F5A05F05D0B3F505
:100C6000C05F02D0B3F5E05F23D1184A936823F444
:100C70006043216943EAC1039360FFF7BDFE134B54
:100C80009B6803F0F003F02292FAA2F2B2FA82F229
:100C9000D3400F4AD35CD8400E4B18600F20FFF7AB
:100CA000BFFB002004E74FF42D71074800F050F817
:100CB000C2E740F2BB21044800F04AF8D5E7012022
:100CC000F6E600BF003C02409C29000800380240C4
:100CD0008C2900080C000020014B1868704700BFE9
:100CE0000C000020FEE7000008B5034800F052F8B1
:100CF0000120FFF7F7FF00BFCC29000808B5034625
:100D00000C4A12685AB10B4A1068033323F00303EC
:100D10000344094A934206D8064A136008BD054AAF
:100D200006491160EFE701F09BF90C2303604FF0D7
:100D3000FF30F3E78000002000FC00208C01002041
:100D400001230360014B0B60704700BF04000020CB
:100D500008B50A460146024800F004F8FFF7C4FF50
:100D6000E02900080FB400B583B004AB53F8042B9E
:100D700001938021064801F0ADF9002803DD01460A
:100D8000034800F047F803B05DF804EB04B0704787
:100D90008800002010B5044601F068F9014620469D
:100DA00000F038F80121024800F034F810BD00BF0F
:100DB000A42A00082DE9F04385B004460F464356A7
:100DC0000BB10E461EE0042528462146ABBE044664
:100DD000384605B0BDE8F08314F9011B04AA1A4493
:100DE00002F8101C0133AB42F6D304AA13440022CC
:100DF00003F8102C4FF00408E94640464946ABBEC4
:100E00008046761B002EE3D03546102E28BF1025D5
:100E10000023E8E708B5FFF7CDFF08BD08B500F0EF
:100E200093F8024A024B9A6008BD00BF0000000818
:100E300000ED00E0F8B504460D4617461E4627486B
:100E4000FFF790FF21682648FFF78CFF616825486F
:100E5000FFF788FFA1682448FFF784FFE168234873
:100E6000FFF780FF21692248FFF77CFF6169214875
:100E7000FFF778FFA1692048FFF774FFE1691F4879
:100E8000FFF770FF1E48FFF76DFF29461D48FFF76B
:100E900069FF1D4CE16A1D48FFF764FF216B1C4888
:100EA000FFF760FFE16B1B48FFF75CFF15F0800F59
:100EB0000AD115F4004F0CD11748FFF753FF0699DC
:100EC0001648FFF74FFFF8BD39461548FFF74AFFB0
:100ED000EFE731461348FFF745FFEDE70C2A00081E
:100EE0001C2A00082C2A00083C2A00084C2A00086A
:100EF0005C2A00086C2A00087C2A00088C2A00085A
:100F00009C2A0008A82A000800ED00E0B82A000882
:100F1000C82A0008D82A0008082B0008102B00084F
:100F2000E82A0008F82A000883691A888A4201D052
:100F3000002070470268033A012A03D80233836114
:100F400001207047002070470C4B1A6842F00102E4
:100F50001A60002199601A6822F0847222F48032AB
:100F60001A60074A5A601A6822F480221A60D9600F
:100F7000044B4FF000629A60704700BF0038024097
:100F80001030002400ED00E0224B9B6803F00C03BE
:100F9000042B14D0082B16D01BB11F4B1F4A1A600C
:100FA00002E01D4B1D4A1A601A4B9B68C3F30313E2
:100FB0001B4AD15C184A1368CB4013607047164B2C
:100FC000164A1A60F0E7134B5A685B6803F03F0358
:100FD00012F4800F13D0114AB2FBF3F20D4B5B6891
:100FE000C3F3881303FB02F30A4A5268C2F30142B7
:100FF00001325200B3FBF2F3074A1360D4E7074A09
:10100000B2FBF3F2034B5B68C3F3881303FB02F3F9
:10101000EAE700BF003802400C0000200024F40082
:10102000542B000808B501220721104600F016F9DC
:1010300001220821104600F011F901220921104671
:1010400000F00CF901220A21104600F007F90122F4
:101050000C21104600F002F901220D21104600F08B
:10106000FDF801220E21104600F0F8F801220F21B0
:10107000104600F0F3F8012300220721184600F083
:101080002FF9012300220821184600F029F9012335
:1010900000220921184600F023F9012300220A2129
:1010A000184600F01DF9012300220C21184600F01B
:1010B00017F9012300220D21184600F011F9012330
:1010C00000220E21184600F00BF9012300220F2107
:1010D000184600F005F908BDF8B507460D46164656
:1010E0000024AC4232D2337883BB3A5DD209072167
:1010F000012000F097F900220821012000F092F968
:1011000000220921012000F08DF900220A2101208E
:1011100000F088F900220C21012000F083F9002260
:101120000D21012000F07EF900220E21012000F0A7
:1011300079F900220F21012000F074F97D2000F0E0
:101140006FFB002000F05AFB0134CAE7F8BD000035
:1011500030B483080A4A023352F8234000F00300F7
:1011600080000F25854024EA050442F8234052F808
:1011700023408140214342F8231030BC704700BF18
:101180000038014011B1012908D0704708490B68A7
:10119000012202FA00F018430860704704490B6806
:1011A000012202FA00F023EA00000860704700BF45
:1011B000003C014001290FD011B1022918D070471D
:1011C000114B9968012202FA00F001439960DA6834
:1011D00022EA0000D86070470B4BD968012202FA5E
:1011E00000F00143D9609A6822EA000098607047D5
:1011F000054AD168012303FA00F00143D1609368E6
:1012000018439060704700BF003C0140014B1860DC
:10121000704700BF08010020014B5860704700BFB5
:101220000801002008B5044B1B689847034A53691E
:1012300043F00103536108BD08010020003C014058
:1012400008B5044B5B689847034A536943F00203AF
:10125000536108BD08010020003C014010B4012882
:1012600017D018B1022826D010BC7047A1F10D0389
:10127000DBB2022BF8D9174B1868490003248C40C5
:1012800020EA04001860186802FA01F101431960AD
:10129000EAE78B1EDBB2022BE6D90F4B1868490038
:1012A00003248C4020EA04001860186802FA01F157
:1012B00001431960D8E7094B1868490003248C40A2
:1012C00020EA04001860186802FA01F1014319606D
:1012D000CAE700BF000002400004024000080240CC
:1012E00030B4012821D018B102283AD030BC704760
:1012F000A1F10D00C0B20228F8D9264844680125A2
:101300008D4024EA0504446044688A4022434260D8
:101310008268490003248C4022EA040282608268C9
:1013200003FA01F111438160E0E7881EC0B2022890
:10133000DCD91948446801258D4024EA050444603D
:1013400044688A40224342608268490003248C40FA
:1013500022EA04028260826803FA01F1114381608B
:10136000C4E70E48446801258D4024EA0504446022
:1013700044688A40224342608268490003248C40CA
:1013800022EA04028260826803FA01F1114381605B
:10139000ACE700BF00000240000402400008024029
:1013A00010B4012817D018B1022826D010BC7047FD
:1013B000A1F10D03DBB2022BF8D9174BD868490015
:1013C00003248C4020EA0400D860D86802FA01F1B6
:1013D0000143D960EAE78B1EDBB2022BE6D90F4B43
:1013E000D868490003248C4020EA0400D860D868FB
:1013F00002FA01F10143D960D8E7094BD8684900E6
:1014000003248C4020EA0400D860D86802FA01F175
:101410000143D960CAE700BF000002400004024057
:101420000008024010B4012815D018B1022822D0BB
:1014300010BC7047A1F10D03DBB2022BF8D9144B9D
:10144000586901248C4020EA0400586158698A4098
:1014500002435A61ECE78B1EDBB2022BE8D90D4B3D
:10146000586901248C4020EA0400586158698A4078
:1014700002435A61DCE7084B586901248C4020EA9A
:101480000400586158698A4002435A61D0E700BF9E
:10149000000002400004024000080240072926D84C
:1014A000012810D010B1022819D07047A1F10D0306
:1014B000DBB2022B49D92548036A890002FA01F1FF
:1014C0000B43036270478B1EDBB2022B3DD92048D1
:1014D000036A890002FA01F10B43036270471D4859
:1014E000036A890002FA01F1194301627047A1F110
:1014F0000803DBB2072B28D8012811D010B102282D
:101500001BD07047A1F10D03DBB2022B1DD90F4890
:10151000436A0839890002FA01F1194341627047B0
:101520008B1EDBB2022B10D90948436A08398900A7
:1015300002FA01F11943416270470448436A0839CD
:10154000890002FA01F1194341627047000002402C
:101550000004024000080240084A136843F00103F7
:101560001360064B1B6813F0020FFAD0034B9A6806
:1015700022F003029A609A689A607047003802402D
:10158000032822D8DFE800F0020A121A0F48036B82
:10159000012202FA01F11943016370470B48436BC2
:1015A000012202FA01F11943416370470748036CB5
:1015B000012202FA01F11943016470470348436CA8
:1015C000012202FA01F119434164704700380240D8
:1015D00010B44409064951F8243000F01F000122DC
:1015E00002FA00F0184341F8240010BC704700BF15
:1015F00000E100E0054B1870054B064A1A60000236
:1016000040F0BF6040F4003018607047480100208F
:101610000CED00E00000FA051E4B1B78033B042B89
:1016200036D8DFE803F0030C17222D000A01D2B2EE
:1016300000F1604000F5614080F80023704712011E
:1016400042EA4112D2B200F1604000F5614080F8F8
:1016500000237047120142EA8112D2B200F16040C9
:1016600000F5614080F800237047120142EAC11280
:10167000D2B200F1604000F5614080F8002370476D
:101680001201D2B200F1604000F5614080F8002301
:10169000704700BF48010020144B1A6822F0400236
:1016A0001A601A6822F400621A601A6822F038027E
:1016B0001A601A6842F002021A601A6822F00102E7
:1016C0001A601A6842F004021A601A6822F0800256
:1016D0001A601A6842F480721A601A6842F4007242
:1016E0001A601A6842F040021A60704700300140E8
:1016F000074B9B6813F0020FFAD0054BD860044BE0
:101700009B6813F0010FFAD0014BD86880B2704784
:101710000030014008B5012208210020FFF79EFD9E
:1017200000231A4608211846FFF7DAFD01220A2194
:101730000020FFF793FD00231A4608211846FFF703
:10174000CFFD012209210020FFF788FD00231A4662
:1017500008211846FFF7C4FD08BD08B501220A217B
:101760000020FFF75FFE022000F02EF900220A2180
:101770001046FFF757FE022000F026F908BD38B5E5
:1017800005460F240BE045FA04F202F0010208219D
:101790000020FFF747FEFFF7E0FF013C64B2002C9A
:1017A000F1DA012209210020FFF73CFE022000F0BF
:1017B0000BF9002209211046FFF734FE022000F049
:1017C00003F938BD024A136823F00403136070471D
:1017D00010E000E0044B00229A6058601A6842F062
:1017E00001021A60704700BF10E000E0024B186869
:1017F000C0F30040704700BF10E000E010B10128C6
:1018000006D07047054A136843F00203136070471F
:10181000024A136823F002031360704710E000E0EF
:1018200010B504460120FFF7E9FF6000FFF7D2FF83
:10183000FFF7DCFF0028FBD0044B1A6822F00102FE
:101840001A6000225A609A6010BD00BF10E000E0EC
:1018500008B5064B1B6823B19847054B1B78012B35
:1018600000D008BD014B00221A60FAE74C010020AD
:101870004901002010B50446012200210846FFF767
:10188000D1FD2046FFF734FF10BD10B504460022FD
:1018900011461046FFF7C6FD2046FFF729FF10BD91
:1018A00008B5012211460020FFF7BCFD6420FFF7B8
:1018B000B7FF002201211046FFF7B4FD0120FFF71A
:1018C000AFFF012211460020FFF7ACFD6420FFF7B7
:1018D000A7FF002201211046FFF7A4FD6420FFF7B7
:1018E0009FFF012211460020FFF79CFD0948FFF7EA
:1018F00097FF1120FFF7C9FF0748FFF791FF3A2034
:10190000FFF7C3FF0520FFF7B5FF2920FFF7BDFF55
:1019100008BD00BFC0D40100F049020038B505463B
:101920002A20FFF7B2FF0020FFF7A4FF0020FFF7F7
:10193000A1FF0020FFF79EFF7F20FFF79BFF2B20DA
:10194000FFF7A3FF0020FFF795FF0020FFF792FFAE
:101950000020FFF78FFF9F20FFF78CFF2C20FFF761
:1019600094FF00240EE035F814006FEA1020C0B296
:10197000FFF780FF35F81400C043C0B2FFF77AFFCD
:101980000134A4B2B4F5A04FEDD338BD4FF080437D
:101990001A6822F070021A601A6842F010021A6087
:1019A0001A6842F080021A601A6842F004021A6053
:1019B0001A6822F002021A60DA6822F00102DA6084
:1019C00007229A627047000010B4214BA3FB00234A
:1019D000DB0BC3EB0344041B19E04FF080434FF6CD
:1019E000FF72DA625A6942F001025A611A6842F0E3
:1019F00001021A604FF080431B6913F0010FF9D008
:101A00004FF08042136923F0010313610B46591E06
:101A1000002BE2D14FF08043DC625A6942F00102B0
:101A20005A611A6842F001021A604FF080431B6944
:101A300013F0010FF9D04FF080431A6922F0010230
:101A40001A611A6822F001021A6010BC704700BFC8
:101A50000180008008B5314B1B7833B1304B1A68D8
:101A6000304B1A602D4B00221A702E4B1B68012B35
:101A700011D92C4A1368013B13604FF080431A6957
:101A800022F001021A614FF6FF72DA625A6942F0DF
:101A900001025A6108BD234B1B68012B26D0224B43
:101AA0001B784BB94FF08043DA6822F00102DA600C
:101AB0001A6822F001021A601C4B1B6898474FF00D
:101AC0008042136923F001031361154B1B68FBB1BE
:101AD00013464FF6FF72DA624FF08042536943F0CB
:101AE000010353610D4B01221A70D3E70D4A1368AD
:101AF000013B13604FF080431A6922F001021A6122
:101B00000B4A1268DA625A6942F001025A61C1E76F
:101B1000074B1A684FF08043DA62DDE710000020BF
:101B20005801002050010020600100205C010020CD
:101B3000540100200D4B1A6822F070021A601A68D6
:101B400042F010021A601A6842F080021A601A68A5
:101B500042F004021A601A6822F002021A60DA687F
:101B600022F00102DA6007229A6270470004004006
:101B700008B52E4B1B7833B12D4B1A682D4B1A60CC
:101B80002A4B00221A702B4B1B68012B10D9294AB3
:101B90001368013B1360284B1A6922F001021A6195
:101BA0004FF6FF72DA625A6942F001025A6108BDCB
:101BB000204B1B68012B23D0204B1B7843B91E4BB5
:101BC000DA6822F00102DA601A6822F001021A6073
:101BD0001B4B1B689847184A136923F001031361D4
:101BE000134B1B68EBB113464FF6FF72DA62124AD1
:101BF000536943F0010353610C4B01221A70D6E77D
:101C00000C4A1368013B13600B4B1A6922F0010266
:101C10001A610C4A1268DA625A6942F001025A618A
:101C2000C5E7084B1A68044BDA62E0E711000020B0
:101C30006C010020640100200004004074010020B9
:101C4000700100206801002070B594B00024019458
:101C5000204B1A6C42F080521A641B6C03F08053C4
:101C60000193019B02941C4B1A6842F440421A6093
:101C70001B6803F440430293029B012308930993DA
:101C80004FF480030F93102310934FF4A873119314
:101C9000042612960723139302250E9508A8FEF733
:101CA0008DFC0F230393049505944FF48053069302
:101CB0000794294603A8FEF7E3FEFFF70DF8074B4C
:101CC000A3FB00308009FEF745FC3046FEF758FCC8
:101CD00014B070BD0038024000700040D34D621057
:101CE00008B5FEF7B3FBFFF7AFFFFFF74DF908BDEF
:101CF0000123024A1370024A1370704776010020D4
:101D000075010020034B00221A70034B01221A7048
:101D1000704700BF760100207501002008B54FF61E
:101D2000FC60FFF72CFD0120FFF74EFE4FF604503C
:101D3000FFF725FD0120FFF747FE4FF60830FFF7BC
:101D40001EFD0120FFF740FE4FF21070FFF717FD58
:101D50000120FFF739FE4EF60870FFF710FD012055
:101D6000FFF732FE4DF60470FFF709FD0120FFF783
:101D70002BFE4BF6FC70FFF702FD0120FFF724FE5F
:101D800008BD08B54FF47E40FFF7F9FC0120FFF7CE
:101D90001BFE4FF69E50FFF7F2FC0120FFF714FEEA
:101DA0004FF69230FFF7EBFC0120FFF70DFE4FF2EC
:101DB0009270FFF7E4FC0120FFF706FE4EF69270EA
:101DC000FFF7DDFC0120FFF7FFFD4DF69270FFF7F6
:101DD000D6FC0120FFF7F8FD4BF6F270FFF7CFFCC1
:101DE0000120FFF7F1FD08BD10B5FFF7B5FB00219D
:101DF0000846FFF7C5FB01210020FFF7C1FB0E21BC
:101E00000320FFF7BDFB0C210320FFF7B9FB0021E6
:101E10000220FFF7B5FB01210220FFF7B1FB0122F1
:101E200000210846FFF71AFA012211460020FFF7A9
:101E300015FA00231A4619461846FFF751FA0023EF
:101E40001A4601211846FFF74BFA002211460120DD
:101E5000FFF704FA012200211046FFF7A1FA002241
:101E600001210846FFF7FAF9012211461046FFF753
:101E700097FA002202210120FFF7F0F90122022146
:101E80001046FFF78DFA022204210020FFF7E6F941
:101E9000022205210020FFF7E1F90222062100209D
:101EA000FFF7DCF9022207210020FFF7D7F905220E
:101EB00004210020FFF7F2FA052211460020FFF767
:101EC000EDFA052206210020FFF7E8FA0522072196
:101ED0000020FFF7E3FA012200210846FFF7BEF9D0
:101EE000012211460020FFF7B9F900231A461946CE
:101EF0001846FFF7F5F900231A4601211846FFF7A7
:101F0000EFF9FFF78FF8FFF705FC01220821002009
:101F1000FFF7A4F900231A4608211846FFF7E0F955
:101F2000012209210020FFF799F900231A4609210F
:101F30001846FFF7D5F901220A210020FFF78EF994
:101F400000231A460A211846FFF7CAF9FFF7A4FB37
:101F5000FFF738FCFFF71AFDFFF7ECFDFFF7A0FCD9
:101F60000020FFF74BFC01210846FFF7F1F80121A3
:101F70000846FFF71FF900210120FFF703F92F485A
:101F8000FFF74AF901210020FFF7E2F801210020C4
:101F9000FFF710F900210846FFF7F4F82848FFF78B
:101FA00035F90320FFF726FB002201210620FFF769
:101FB00033FB0620FFF70CFB0720FFF709FB19E0B6
:101FC0000024204B1C702048FFF7A8FC40F6C313E8
:101FD0009C4206DC1B4B1B781BB9FFF79FFE0134AC
:101FE000F4E7184A4BF640311848FFF775F800201F
:101FF000FFF704FC164B1B78002BE1D0012B01D01E
:1020000000BFF7E700240F4B1C701248FFF786FC57
:1020100040F6C3139C4206DC0A4B1B781BB9FFF742
:10202000B0FE0134F4E7074A4BF670110A48FFF797
:1020300053F80020FFF7E2FBDCE700BFF11C0008CB
:10204000051D00087501002064CB0008D424020897
:1020500076010020642B0008646B010870470000C3
:10206000014B1868704700BF14000020034613F8A6
:10207000012B002AFBD1181A0138704730B5141E05
:1020800005469BB0184605DA8B232B604FF0FF30D6
:102090001BB030BD4FF40273ADF80C3014BF04F127
:1020A000FF332346029305934FF6FF73009104918B
:1020B000ADF80E3002461E9B6946284600F072F8C5
:1020C000431CBCBF8B232B60002CE1D0009B002263
:1020D0001A70DDE707B5009313460A460146034828
:1020E0000068FFF7CBFF03B05DF804FB140000208D
:1020F0002DE9F0478E689E4282460C4690469946EE
:1021000037D88A8912F4906F31D0256809696F1A1F
:102110006569022305EB450595FBF3F509F101031C
:102120003B449D4238BF1D46530530D5294600F03B
:1021300079FB064650B90C23CAF80030A38943F056
:102140004003A3814FF0FF30BDE8F0873A46216994
:1021500000F0F6FAA38923F4906343F08003A3818F
:10216000266165613E44ED1B2660A5604E464E45E6
:1021700000D94E4632464146206800F0ECFAA3688A
:102180009B1BA36023681E4426600020DCE72A46D0
:1021900000F0A2FB06460028E2D12169504600F07B
:1021A000F3FAC8E72DE9F04F9DB0804603938B8981
:1021B0001D060C4616460FD50B696BB9402100F081
:1021C00031FB2060206128B90C23C8F800304FF0A3
:1021D000FF30C7E0402363610023099320238DF87B
:1021E000293030238DF82A304FF0010B37463D4619
:1021F00015F8013B0BB1252B3ED1B7EB060A0BD0EE
:102200005346324621464046FFF772FF013000F048
:10221000A480099B534409933B78002B00F09D80D8
:1022200000234FF0FF32CDE90523049307938DF887
:1022300053301A932F46052217F8011B4F4800F020
:102240002FFA049BD0B9D90644BF20228DF8532021
:102250001A0744BF2B228DF853202A782A2A15D03A
:10226000079A2F4600200A25394611F8013B303BDA
:10227000092B4DD9B8B10FE02F46B8E73F4A801A75
:102280000BFA00F0184304903D46D3E7039A111D62
:1022900012680391002A01DB079204E0524243F0E6
:1022A0000203079204933B782E2B0CD17B782A2BC8
:1022B00033D1039B1A1D1B680392002BB8BF4FF04C
:1022C000FF33023705932E4D39780322284600F05C
:1022D000E7F938B14023401B03FA00F0049B0343A5
:1022E00001370493397827488DF8281006227E1C80
:1022F00000F0D6F9002838D0234B13BB039B0733DB
:1023000023F0070308330393099B4B4409936DE7BC
:1023100005FB023201200F46A6E700230137059393
:1023200019460A25384610F8012B303A092A03D9F4
:10233000002BC8D00591C6E705FB01210123074604
:10234000F0E703AB00932246104B04A94046AFF3DD
:102350000080B0F1FF3F8146D6D1A3895B063FF5EF
:1023600036AF09981DB0BDE8F08F03AB009322464D
:10237000064B04A9404600F081F8EAE714E00208A1
:102380001AE002081EE0020800000000F120000828
:102390002DE9F04791461F468A680B69DDF82080D9
:1023A0009342B8BF1346C9F8003091F8432006465F
:1023B0000C4612B10133C9F800302368990642BFB8
:1023C000D9F800300233C9F80030256815F0060549
:1023D00007D104F1190AE368D9F800209B1AAB422F
:1023E00028DC94F843302268003318BF012392069A
:1023F0002DD404F1430239463046C047013020D085
:102400002368E568D9F8002003F00603042B08BF11
:10241000AD1AA36822690CBF25EAE5750025934231
:10242000C4BF9B1AED184FF000091A344D451AD15C
:10243000002008E00123524639463046C0470130AB
:1024400003D14FF0FF30BDE8F0870135C3E7E11855
:102450005A1C302081F84300224494F8451082F839
:1024600043100233C5E70123224639463046C047B0
:102470000130E6D009F10109D8E700002DE9F04369
:1024800001F1430C0C46097E85B06E2917460646BD
:1024900098460C9A00F0B38022D8632936D00AD827
:1024A000002900F0B980582900F0838004F142052A
:1024B00084F8421032E0642901D06929F6D12068FD
:1024C0001368050603F104012AD51B681160002B6F
:1024D00003DA2D225B4284F843206F480A2239E058
:1024E000732900F09D8008D86F2920D07029DDD194
:1024F000236843F02003236003E0752917D078296F
:10250000D4D1782384F84530644855E01368191D08
:102510001B68116004F1420584F8423001238CE00D
:102520001B68116010F0400F18BF1BB2CFE7136893
:102530002568181D1060280601D51B6802E0680692
:10254000FBD51B8854486F2914BF0A22082200219A
:1025500084F843106568A560002DC0F2958021685D
:1025600021F004012160002B3DD1002D40F08E8030
:102570006546082A0BD12368DB0708D52369626802
:102580009A42DEBF302305F8013C05F1FF35ACEB84
:1025900005032361CDF800803B4603AA214630465F
:1025A000FFF7F6FE01304DD14FF0FF3005B0BDE82A
:1025B000F083394884F84510136821681D1D1B6895
:1025C00015600A060BD5CA0744BF41F020012160FF
:1025D0001BB9226822F0200222601022B7E74D06C4
:1025E00048BF9BB2EFE76546B3FBF2F102FB113344
:1025F000C35C05F8013D0B460029F5D1B9E7136826
:1026000025686169181D106028061B6801D51960CE
:1026100002E06A06FBD51980002323616546B9E70D
:102620001368191D11601D6862680021284600F0BA
:1026300037F808B1401B606063682361002384F8A9
:102640004330A7E723692A4639463046C047013060
:10265000AAD023689B0713D4E068039B9842B8BFB5
:102660001846A3E701234A4639463046C0470130A1
:102670009AD00135E368039A9B1AAB42F2DCEBE790
:10268000002504F11909F5E7002BACD1037884F893
:10269000423004F142056CE725E0020836E002080A
:1026A00001F0FF01102A2BDB10F0070F08D010F803
:1026B000013B013A8B422DD010F0070F42B3F6D107
:1026C000F0B441EA012141EA014122F007047FF020
:1026D00000070023F0E80256083C85EA010586EA77
:1026E000010685FA47F5A3FA87F586FA47F6A5FAB3
:1026F00087F68EB9EED1F0BC01F0FF0102F00702BF
:1027000032B110F8013B013A83EA010313B1F8D169
:102710000020704701387047002D06BF354603384A
:10272000073815F0010F07D1013015F4807F02BF83
:10273000013015F4C03F0130F0BC0138704700BFD4
:1027400010B5431E0A44914200D110BD11F8014B4F
:1027500003F8014FF7E7884210B501EB020307D8F1
:10276000421E99420AD011F8014B02F8014FF8E7D6
:102770008342F5D98118D21AD34200D110BD13F883
:10278000014D01F8014DF7E738B50546002945D060
:1027900051F8043C0C1F002BB8BFE41800F0D2F82D
:1027A0001F4A1368104633B9636014602846BDE8B9
:1027B000384000F0C8B8A3420CD92168621893428F
:1027C00004BF1A685B68636004BF5218226004602B
:1027D000ECE713465A680AB1A242FAD919685818A8
:1027E000A0420BD120680144581882421960DDD103
:1027F000106852685A6001441960D7E702D90C2367
:102800002B60D3E7206821188A4204BF1168526800
:10281000626004BF091821605C60C7E738BD00BF73
:102820007801002070B5CD1C25F0030508350C2D6E
:1028300038BF0C25002D064601DBA94203D90C2325
:102840003360002070BD00F07DF8214A14682146F5
:1028500091B9204C23681BB9304600F063F8206022
:102860002946304600F05EF8431C24D10C23336027
:10287000304600F068F8E4E70B685B1B18D40B2BBC
:102880000FD90B60CD50CC18304600F05CF804F145
:102890000B00231D20F00700C31AD3D05A42E25088
:1028A000D0E78C424B6816BF636013600C46EBE7C1
:1028B0000C464968CCE7C41C24F00304A04205D0B0
:1028C000211A304600F02EF80130CFD02560DBE72A
:1028D000780100207C010020F8B5074614460E461A
:1028E00021B91146BDE8F840FFF79CBF22B9FFF7B8
:1028F0004BFF25462846F8BD00F026F8A0420FD22F
:1029000021463846FFF78EFF05460028F2D03146B3
:102910002246FFF715FF31463846FFF735FFE9E756
:102920003546E7E738B5064C0023054608462360E0
:10293000FEF7E4F9431C02D1236803B12B6038BDD4
:10294000840100207047704751F8043C181F002B89
:10295000BCBF0B58C01870472E2E2F737973746547
:102960006D2F7372632F73746D333266342D68610B
:102970006C2F73746D3332663478785F68616C5F86
:10298000636F727465782E63000000000000000021
:102990000102030401020304060708092E2E2F7307
:1029A000797374656D2F7372632F73746D33326630
:1029B000342D68616C2F73746D3332663478785FB0
:1029C00068616C5F7263632E6300000061626F7206
:1029D0007428292C2065786974696E672E2E2E0064
:1029E0006173736572745F706172616D282920660E
:1029F00061696C65643A2066696C652022257322E2
:102A00002C206C696E652025640A00005374616394
:102A10006B206672616D653A0A000000205230201A
:102A20003D2020253038580A000000002052312077
:102A30003D2020253038580A000000002052322066
:102A40003D2020253038580A000000002052332055
:102A50003D2020253038580A000000002052313235
:102A6000203D20253038580A00000000204C52201C
:102A70003D2020253038580A000000002050432017
:102A80003D2020253038580A0000000020505352C5
:102A9000203D20253038580A000000004653522FB0
:102AA0004641523A0A0000002043465352203D203E
:102AB00020253038580A00002048465352203D2037
:102AC00020253038580A00002044465352203D202B
:102AD00020253038580A00002041465352203D201E
:102AE00020253038580A0000204D4D464152203DE7
:102AF00020253038580A00002042464152203D200F
:102B000020253038580A00004D6973630A00000020
:102B1000204C522F4558435F52455455524E3D204C
:102B2000253038580A0000005B48617264466175C0
:102B30006C745D0A000000005B4275734661756C41
:102B4000745D0A005B55736167654661756C745D01
:102B50000A00000000000000000000000102030461
:102B600006070809271227122712281228122812EE
:102B70002812281228122812281228122812281285
:102B80002812281228124812470A2712281208125F
:102B90002812270A27120712281A29122812071AA0
:102BA000A429A85AE9AB647A036A046AA040436185
:102BB00003618258625882588258825882588258DB
:102BC000625821586260625862586258625862586E
:102BD000625862586258825862584150415062505F
:102BE0006250415022502150015002500250015079
:102BF0000150014801402140413861308128A2281C
:102C0000A120A118A1208120611861186110411034
:102C1000401020080010201020180020002000285C
:102C2000613882400149C359456A868AC271C261CE
:102C3000A3310622071A081A27122812281208128E
:102C4000081227120712071207120712071207129B
:102C5000071207122812281207120712071207126A
:102C600007120712271227122812281228122812D8
:102C70002812281228122812281228122812281284
:102C8000281228122812280A270A271228120812A6
:102C90002812270A2712071208120812080A071A10
:102CA000E5314A738482C58A857AA68222512782B9
:102CB000815062584258625882588258625862580D
:102CC000626042606260626062606258625862582C
:102CD0006258625842584258415021502150215068
:102CE00041502150424821480148015001500250B2
:102CF0000250224821404138613081288128A1209A
:102D0000A120A1208120812061186118611041104B
:102D1000201020102010201820180020002000284B
:102D20002030413022494662A77A457A047A81519F
:102D3000A33106220712081A2712281208120812B5
:102D40000712271207120712071228122812281238
:102D50002812281228120712071207120712071248
:102D600007120712281228122812281228122812D5
:102D70002812281228122812281228122812281283
:102D80002812281208122712270A271208120812DE
:102D90000812270A070A0712281A08120812071A27
:102DA000E5298B7B479B479B078BC3698782E67925
:102DB000815882604258625862586258625862581C
:102DC0006260426062604260625862586258425873
:102DD00042584258415841584150215021502150A9
:102DE000215021504248414821482148214821484A
:102DF000214842404140413861308128812881206A
:102E0000A118C12081208120611861184010401054
:102E1000201020102010201000180018002020285A
:102E200000280028E1386341C451088B047A4149E5
:102E3000053A061A08120812271227120812081259
:102E40000712271207120712071207120712281279
:102E50002812281207120712071207120712071268
:102E600007120712281228122812281228122812D4
:102E70002812281228122812281228122812281282
:102E80002812281228122712270A271208120812BD
:102E90000812270A060A0712281A08122812E61131
:102EA000C529AB7BA8ABA9A3A5828261E992A571D4
:102EB0006158826042606260626062586258425843
:102EC0004260426042584258425842584258415823
:102ED00041582158415041502150215021502150FA
:102EE0002150215061484140214021482148214042
:102EF000214021404138413041288128A120A12092
:102F0000A118A1208120811861186118411040107A
:102F10002010000800100010001000182120412887
:102F2000412841288128023160204772467A83492E
:102F3000E531E61108120812271207120712E811EC
:102F40000712271207120712071207120712071299
:102F500007120712071207120712071207120712A9
:102F600007120712281228122812281228122812D3
:102F70002812281228122812281228122812281281
:102F800028122812281228122712271208120812B3
:102F90000812270A070A0712E711E809080AE611CA
:102FA000E529AC7B87A32BBC8582E369A78A2369CB
:102FB000615862606268626062606258625862581A
:102FC000426022604158415841584150425041505E
:102FD0004150415021502150215021502148214839
:102FE0002148214841482148214821482148214081
:102FF000214041386138412840208120A120A12072
:10300000A118C118A1208118411840104110411089
:103010002010000820102010201000182018412037
:103020004120612820182331844184518359624111
:103030000532271A08120812071227120712E81180
:103040000712271207120712071207120712071298
:1030500007120712071207120712071207120712A8
:1030600007120712281228122812281228122812D2
:103070002812281227122712281228122812281282
:1030800028122812281228122712271208120812B2
:103090000812270A271207120712080A280A07121D
:1030A000C4214A6BC8AB0AB4A58AC369878A204881
:1030B000A268626842684260426062586258425840
:1030C0004260426062504250425042506250415011
:1030D0004150415021482148214821482148214858
:1030E0002148414821500150015021502150214890
:1030F00041406140A2406130602081208120A118C0
:10310000A118C120A2208118611040104110411067
:10311000201000102010201020102010201840181F
:1031200061208120C228A220853923418351E96A88
:103130004732C6090812081207122712071207128F
:103140000712271207120712281228122812281213
:103150002812281228122812071207120712071223
:1031600007120712271227122812281228122812D3
:10317000281228122812281228122812281228127F
:1031800028122812281228122712271208120812B1
:103190002812270A27120712281229124912271A61
:1031A000C421E85A469BA8AB447A0472468A204858
:1031B00061604260426842604260625862584258B0
:1031C000425842604250415041504150415042505B
:1031D0004150215021502148414841502148214827
:1031E00021484250015801580158015021502148AE
:1031F00041484140823882308128812081188118DD
:10320000A118A118A1188118611840104010411090
:1032100020102110001000102010201040186118FC
:10322000811881208120032903292341C559A862DF
:10323000A419481A280A081227122712071208127E
:1032400008122712281228122812281228122812CF
:10325000281228122812281228122812281228129E
:103260002812281227122712271228122812281291
:10327000281228122812281228122812281228127E
:1032800028122812081228122712271208120812D0
:103290002812270A4712071228122812280A271A6A
:1032A000E529096367A32ABCC68AE371E579405022
:1032B0008160626842604260425862586250425087
:1032C00042584258425042502150215021502150E2
:1032D000215021502250225022502250215001488A
:1032E00021504250015801580158015001500148E5
:1032F0002140413861308230A228A12081208118EC
:103300008118811881188118611840182010201028
:103310004110411821102010201041106110611837
:1033200081188118C2286439033123412249E128D8
:10333000A5190712280A28122712271208120812A4
:1033400028124712081208120812281228122812EE
:10335000281228122812281228122812281228129D
:1033600028122812071207122712281228122812D0
:10337000281228122712281228122812281228127E
:1033800028122712081228122712271208120812D0
:10339000281228122712271228124912280A061268
:1033A000E5294A6BC9ABE9AB689B6159C4716050B0
:1033B000A260626042602258215041484148424820
:1033C0004250425022502250225021500148014880
:1033D000225042502250225022502250225022503D
:1033E00022502250015001502250225021482140A9
:1033F00021382130413061288128A228C228A1200B
:103400008120401860106118611041184010201090
:1034100041186118411020100008411081186118EE
:103420008118A118C230E6496439A13002414339FC
:10343000E5214812281228122712271228120812F2
:103440002812270A281228122812281228122812B5
:1034500028122812281228122812281208122812BC
:10346000281228122712281228122812281228128D
:10347000281228122812281228122812281228127C
:1034800028122812081228122712271208120812CE
:103490002812480A47122712071229124812271227
:1034A000E529296368A388A3E78A00516361E2588C
:1034B000A258425821582150414841404140424081
:1034C0004240424821402148214821402140214892
:1034D00042484248625062506248624862484248EC
:1034E000424842486248624842404240413821389E
:1034F00041306128812881288120A120A228A2288A
:10350000812861208118811860184118611861189C
:1035100061182010A22061188218811840108118AB
:10352000C2208118065A065A6441A130A45922319A
:103530004732070A281228122712271228120812C7
:10354000280A480A2812281228122812281228129B
:10355000281228122812281228122812281228129B
:10356000281228122812281228122812281228128B
:10357000281228122812281228122812281228127B
:1035800028122812081228122712271208120812CD
:103590002812480A47122712071229124812271A1E
:1035A000062A4A6B279BA9AB4893825901510259BD
:1035B0008250825021482140213821382130213049
:1035C0002138213800300030003000300030003029
:1035D0002130213020300130013001300130003005
:1035E00000300028202820202020202020202020FB
:1035F0004020612081208120812081208120A228FB
:10360000A23082308120A2208118611861188220A6
:1036100082202010822041186118611881186010E2
:103620008118C5418C93065A6341A130C459223197
:10363000062A0712281228122712471228120812E7
:103640002912480A28122812281228122812281291
:10365000281228122812281228122812281228129A
:10366000281228122812281228122812281228128A
:10367000281228122812281228122812281228127A
:1036800028122812081228122712271208120812CC
:103690002812480A2712271228122912280A271A44
:1036A0004632AB73A9A3CAA3E78A6259C040A140BE
:1036B0004040214021404138413040282020002016
:1036C0000020002800180018001800180018001822
:1036D0000018001800180018001800180018001032
:1036E00000100010000800080010201020104018E2
:1036F0008118A120A120A120A120A1208120812822
:1037000081308130A120A220A120811840106118B1
:10371000A22041188118411861186118C22081182F
:10372000C220CA628C93C5516441A1306351E549FE
:10373000A419481228122812471A271228122912EF
:10374000290A480A28122812281228122812281298
:103750002812281228122812281228122812281299
:103760002812281228122812281228122812281289
:103770002812281228122812281228122812281279
:1037800028122812281228122712271208120812AB
:103790002812480A2712271228122912280A27124B
:1037A00026328B73C68AA68204624149C140002832
:1037B0006038613841386130612840202018001895
:1037C00000180018200820102010200820082008C9
:1037D0000008000820080008000800080008000889
:1037E0000008200820002000200840084010401059
:1037F000601081188118C220E228C228A228A128BE
:1038000081288130C120A120A120812040104010BA
:103810008218611881184110A22061186018E228EE
:103820002331C649066264418541C1306449885AE2
:10383000C519481248122812471A271228122912AD
:103840004912480A2812281228122812281228126F
:103850002812281228122812281228122812281298
:10386000281228122712271227122812281228128B
:103870002812281228122812281228122812281278
:103880002812281228122812270A271208120812B2
:103890002812480A2712071207122812280A271A84
:1038A000E5290963046A046A0462C459834900185B
:1038B000813061304128612860206018401020105C
:1038C0002010001020082008400840084008400848
:1038D0004008400820082008200800082008200888
:1038E0002008200820082008200840104010201040
:1038F000201040106118A118C220C220C228A2289E
:10390000A228A128C228812081208120401861108E
:10391000811820104010611881184018A120243906
:1039200003310331033923314431E3308549C54143
:10393000C6194812490A2812471A271228122812B3
:103940002812480A2812281228122812281228128F
:103950002812281228122812281228122812281297
:103960002812281227122712281228122812281289
:103970002812281228122812281228122812281277
:103980002812281228122812270A271208120812B1
:103990002812480A27122712071228124812271A3B
:1039A000E529E85A667AE461E461C459C5512020EA
:1039B00060280018402040186010601061106110ED
:1039C0004010201040104010401041104110611074
:1039D000611041104110411041104110411041103F
:1039E000411041104110411041186118411841180F
:1039F00041186118611881188118A120C120C228BE
:103A0000C228A128C228A120812081184010611855
:103A1000A22020086118A2208120A228443944391C
:103A2000033924390339E32804292431644103216B
:103A3000C6194912490A28122712471228122812B9
:103A40002812480A2812281228122812281228128E
:103A50002812281228122812281228122812281296
:103A60002812281227122712281228122812281288
:103A70002712271228122812281228122812281278
:103A80002812281228122812270A27120812281290
:103A90002812480A2712271228122912280A271A40
:103AA000052A2963C369415162510139023900185D
:103AB000A12861284120611881108110A110811076
:103AC000611041106118611861186118611861185E
:103AD00061184118411861206220822082208220D2
:103AE0006220622062204220422041204120412069
:103AF000411861208120811880188118C120E22896
:103B0000E228C228C228A228A1206018001060184C
:103B1000C2204010A2188118C22024310331E330A2
:103B200024390339E330032965312439E33064292A
:103B3000071A280A490A28122712271227120812E0
:103B40002812480A2812281228122812281228128D
:103B50002812281228122812281228122812281295
:103B600028122812281228122812081208122812C5
:103B70002812281228122812281228122812281275
:103B8000281228122812281227122712071A281280
:103B9000480A470A270A0812491269024702E5093A
:103BA000E8620CAC279B6482A361E461E1382018D1
:103BB0006118811861186018801881208118811897
:103BC00061186218811881186118611881188118AC
:103BD0008118811881208118811861186118611875
:103BE0006118611860186018601861186118611810
:103BF000621882186110A22061182018A128A1283B
:103C0000A1308030C01880208028612061186110A8
:103C1000A2188218C330A230C230023123312331BE
:103C20000331C230A328C3280231C030A030023192
:103C30002321272A2812680A680A480A2812271A04
:103C4000271A47122812281228122812281228127E
:103C50002812281228122812281228122812281294
:103C600028122812281228122812081208122812C4
:103C70002812281228122812281228122812281274
:103C8000281228122812281227122712071A28127F
:103C9000480A470A4712E711080A490A680A261A19
:103CA000096BECAB6CC4CECC6A9B466A60282018CA
:103CB00040184010811881188120812081208118AE
:103CC000611862188118811881188118811881186B
:103CD000811881188118811881186118611861187C
:103CE00061186118801881188118611861186118AD
:103CF000611881186118A2206118A1206441434114
:103D00002241E1400141E140A561455982308220D4
:103D10004110821882208128C230443964314331F5
:103D2000E228A128C328E32864412139E138A449C5
:103D3000474AA519281A480A680A480A2812271A61
:103D4000271A48122812281228122812281228127C
:103D50002812281228122812281228122812281293
:103D600028122812281228122812081208122812C3
:103D70002812281228122812281228122812281273
:103D80002812281228122812271227120712281286
:103D9000280A270A481207120812480A270A051A91
:103DA000875AE892E592689B857A0562C1302018AF
:103DB0006120A220812081208120812081208120FA
:103DC000611861186118811881188118811881188B
:103DD0008118811881186118611881188118812053
:103DE00081208120811881188118811881188118FB
:103DF0008118811881188118602002394762266A6B
:103E0000E561C461A469C5710782A671E348C23047
:103E10002010601861188120033164414331E22889
:103E2000C228A228822085410552E459A351A872D4
:103E3000A85A072A281A480A480A480A2812281A9B
:103E4000281A48122812281228122812281228127A
:103E50002812281228122812281228122812281292
:103E600028122812281228120812281228122812A2
:103E70002812281228122812281228122812281272
:103E8000281228122812280A27122712271228126D
:103E9000280A280A0712081A281A2812270A462A66
:103EA000A76A868A437A0272046A256A2241001848
:103EB00003310331812081208120812081208120D4
:103EC000811861188118811881208120812081202A
:103ED00081208120811881208120812081208120E2
:103EE00081208118811881188118811882208220F0
:103EF000812081208120802040200239A87AA87A60
:103F0000878266828682267A4682888A8459023926
:103F10004331E118E120E22843394339E228A2285D
:103F2000C230E338C230A549602800416251A45133
:103F3000064A8521281A480A480A481228120812F7
:103F40002812481228122812281228122812281281
:103F50002812281228122812281228122812281291
:103F600028122812081208120812281228122812E1
:103F70002812281228122812281228122812281271
:103F800028122812280A280A271227122812281273
:103F9000280A280A2812081AE81128120712873A54
:103FA000087BE79A84824372278B298343416020F0
:103FB0006439C228812081208120812081208120B4
:103FC00081208120812081208120812081208120E9
:103FD00081208120812081208120812081208120D9
:103FE00081208120812081208120812082208220C7
:103FF000A1208120A120A0206020C038A87AA88A12
:10400000A78A878AA67AC78AA78AE88AA77A2139DF
:10401000E0206329422943312331E228A128C22824
:10402000033904412341A030A0308251256AE46164
:1040300063418529071A4812480A281228122812B3
:104040002812481228122812281228122812281280
:104050002812281228122812281228122812281290
:1040600028122812071208120812281228122812E1
:104070002812281228122812281228122812281270
:1040800028122812280A280A271227122812281272
:10409000280A2812281A081A07122812E61166425E
:1040A000498BCABBE58AE169A57A498B83512341D3
:1040B000443961208220812081208120812081203B
:1040C00081208120822081208120812081208120E7
:1040D00081208120812081208120812081208120D8
:1040E00081208220812082208220822082208120C3
:1040F000A120A1208120A1288028C038A882C88AB8
:10410000C8928792A682E792A78A4682E88A2562A9
:104110000131012943312229E228A120C220233183
:104120002331C228634942490041036AA67AC78203
:104130006341E63907222812281228122812281271
:10414000281249122812281228122812281228127E
:10415000281228122812281228122812281228128F
:1041600028122812071207120812281228122812E1
:10417000281228122812281228122812281228126F
:104180002812281228122812271227120812281281
:10419000280A2812E71108122812481AE619A7520D
:1041A000AA9BEABB09ACC582847AA67AA351C55101
:1041B000E338A228822081208120A120A120A120F3
:1041C000A120A12082208120812081208120A12086
:1041D000A120A120A120A120A120A120A120A120D7
:1041E000A120A2208120812081208120A120A12046
:1041F000A120A1208120A1288028C138C982C88A95
:10420000A88A678AA792268AA89AA89A678A0A9390
:10421000A87AC138E238C228A120A118E220432997
:104220002331C228456AAA9B2051C1690372867A4C
:10423000C87A064AE72128122812281208122812E2
:10424000481249122812281228122812281228125D
:10425000281228122812281228122812281228128E
:1042600028122812071207120812281228122812E0
:10427000281208122812281228122812281228128E
:104280002812281228122812271227122812280A68
:104290002812281208124812070A0712E619E85ACB
:1042A000488B848A679BE9ABC9A3046A4249065AD2
:1042B00023398128A220A220A2208120A120A12090
:1042C000A120A1208220A220A220A220A220A12001
:1042D000A120A120A120A120A120A120A120A120D6
:1042E000A120A22081208120812081208120A12065
:1042F000A120A120A120A1288028C130C97A887AD4
:10430000477A267A278A0AA3EA9A4BA3C992688237
:10431000077A0351A238A230A228C220E22003313A
:104320002339E238004148932BBC8482437A85824A
:104330008B9BE649E6212712281208120812281240
:10434000481248122812281228122812281228125D
:10435000281228122812281228122812281228128D
:10436000281228120812081208120812081208123D
:1043700028122812071207120812081228122812EF
:10438000281228120812081227122712280A280AAF
:104390000812081228122712280A2812E6196A6B36
:1043A000A993C5920272026A489341510141066283
:1043B0004441A128A228A228A220A220A120A12015
:1043C000A128A128A22081208120A228C228A120E2
:1043D0008120A1208120A1208120A220A120812054
:1043E000A2208118812081208120812081208120AC
:1043F0008120A120A120A120C22823398551A559BF
:10440000645944594451E2484349476A2662234962
:104410008138C348C338C328C320A218A218C230A9
:104420008138C669446A2793EAB3E5920593858289
:1044300083598439E62147124812081A0812481293
:10444000480A481228122812281228122812281264
:10445000281228122812281228122812281228128C
:10446000281228120812081208120812081208123C
:10447000081228120712071208120812081228122E
:10448000281228120812081227122712280A280AAE
:104490000812081207124812480A4812E621096356
:1044A0000BA4A8AB8482857A689BE369E148056226
:1044B0006449A130A228A228A220A220A120A228DB
:1044C000812061208220A228A228812061208120D1
:1044D000A228C228C228C22881208120A2288120A7
:1044E000A2288220A1288120A128A228C228C2288F
:1044F000C228E228A220E2282331E3308128612863
:10450000A2382441612840182008801060086018F3
:10451000C228C749A639E318031123114429433996
:104520004349888248938582A492C071427AA58AC1
:10453000E4696339E62127122812081A2812481262
:10454000480A481228122812281228122812281263
:10455000281228122812281228122812281228128B
:10456000281228120812081208120812081208123B
:10457000081208120712071208120812081208126D
:10458000081208120812081A07122712280A280A05
:1045900008120812E709270A480A270AC6212652E4
:1045A000288BC592A58207938DBCE88A625146721A
:1045B000A55903398128C228C228C220A220A120DF
:1045C000A228A128A220A220C228C220A220C2285C
:1045D000C228A120A120A2288120A228A2288120CF
:1045E0008120A220A128A128A228C228C228C2284E
:1045F000C228C2280329E328C220C220A228A22858
:10460000A228A22842286118A110C108A008800889
:1046100060082419072AC6110712271A062A05421C
:104620008341256A288BA58A06A3227AC58A68A3B6
:10463000877AA541E62147122812081A281A480A43
:10464000480A281228122812281228122812281282
:10465000281228122812281228122812281228128A
:10466000281228120812081208120812081208123A
:10467000081208120812081208120812081208126A
:10468000081208120812081207122712480A280AEC
:10469000081208122812480A480A0812E729475A3D
:1046A000667AE2714159E3698AA3C88AC461C56127
:1046B000476A6449A128A128A120A120A120A12006
:1046C000A220C228A2208118C220C228C220C2284B
:1046D000C220A220C228E228C228C228C228A228BA
:1046E000A220A2288120A120A120A128A228A228BE
:1046F000A228A220A220A220A220C220C320C32838
:10470000A328A2208330411861108008A008A008C7
:10471000A108C621071A68126812271AE521254246
:10472000C349C67A288B458248AB4382437A247AB0
:104730002672C541E619470A2812081A281A480A9B
:10474000480A281228122812281228122812281281
:104750002812281228122812281228122812281289
:10476000281228120712081208120812081208123A
:1047700008120812281228122812281208120812E9
:10478000081208120812081208122712270A280A0B
:1047900008120812481A270A480A0712083A2C83F6
:1047A0008782048282616261E8928782A361635991
:1047B000E561E5594341E2288120A120C220C220C1
:1047C000C220C228E328C220C220A1188118A1203B
:1047D000A120C228A120812060184018401861182B
:1047E00040184018601860186118812081208120CD
:1047F000A228A228A220A220C220A21882188218D1
:10480000A220C320832041188110A110A0106008AD
:10481000C208E721281A280AE711282A474A8449AA
:10482000C36189A3C882A050A69AE692A161804084
:104830008461A541061A480A2812081A281A480A4B
:104840004812281A28122812281228122812281270
:104850002812281228122812281228122812281288
:10486000281228120712071207120812081208123B
:1048700008120812281228122812281228122812A8
:1048800028122812081208120712270A470A280AB3
:104890000812E71907120602480AE71109426E9347
:1048A000688A258A0572C469A369A3696361E56999
:1048B0006772C55984492339C228C220C220A22068
:1048C000C228E328C220A118811820084010A12086
:1048D0006018601861186018A120812040186118C4
:1048E0006120612060106018601840184018612035
:1048F00061208120A228A220A220A218A220C220EA
:10490000A220A21882188110811060108018C2188D
:10491000A529282A281AE811E8216A4A2C83635914
:10492000C371279B6B93A0506379658A036A015119
:10493000E669C641271A480A2812081A281A480A9E
:10494000480A081A28122812281228122812281297
:104950002812281228122812281228122812281287
:10496000281228120712071207120812081208123A
:104970000812081208120812081208120812081267
:1049800028122812081208120712270A4702280ABA
:104990000812E719071A270A6812E8194A526E9B8B
:1049A000889226926361888AE571057A8361015154
:1049B000877A0562E55184412331C220C220A220BA
:1049C00082208220401000080008000040104010A3
:1049D0000008A120A12020108120A22861184018E1
:1049E0006120612081108118611841184118401818
:1049F0004018401840186120A120811861186110EA
:104A00006118811861086008401020104020C228F9
:104A1000C639A61907120812C8218A5A2B83A46125
:104A20004472A47A47726471E589E89A65724251CA
:104A30008559C741281A480A280A081A281A480A14
:104A4000480A081A28122812281228122812281296
:104A50002812281228122812281228122812281286
:104A6000281228120712071207120712081208123A
:104A70000812081207120712071208120812081269
:104A800008120812081208120712270A4702480AD9
:104A90000712E719E719070A270AA7116B5A6E9B35
:104AA000EAA2A8A26361C150067AC471267A05728F
:104AB0006359266AE972475A8439032944316539B2
:104AC000C3280008400820086010811881182008B9
:104AD00040102752E6498120401881208120A228D9
:104AE00081206120A110A218821861186120612024
:104AF0006120612061206120611840102010200891
:104B00002008200840086010401820202028812814
:104B10000742072207124912C7192C63CA72A35110
:104B2000235A0052687A85714371E89A667A067250
:104B300028724952481A4902280AE8190812480AF4
:104B4000280A081A281228122812281228122812B5
:104B50002812281228122812281228122812281285
:104B6000281228120712071207120712071207123B
:104B700007122712271227122812271227120712AC
:104B800007122712E8190812280A270A470A270AD3
:104B900007120812E8092812070A071A684A4C93F4
:104BA00089A289B24359E25847824249465AE9826A
:104BB00064710582CCAB09830231C6296812881260
:104BC000020900204010200840106110A21820089F
:104BD0002008274ACA62811861188120611861186B
:104BE00081204118612061206118611861188118C5
:104BF0008118811061106008400840084008400892
:104C0000400820084000810064198000A00842216B
:104C10004A5BE5210522A419E6316C7B886A0241D2
:104C2000824961418992E671C0388251E88AE5790A
:104C3000898A2862C629280A68026902280A271276
:104C40002612461228122812281228122812281278
:104C50002812281228122812281228122812281284
:104C6000281228120712071207120712071207123A
:104C7000071207120712271227122712071207120C
:104C800007120712E8190812280A470A270A270AF2
:104C900007120812E809080A4812C51168426C8B0D
:104CA000899289AA64618571478A2249C030635913
:104CB0000682C4792572676A23316521E609680A8C
:104CC000641900204010401061100008401060106E
:104CD00000002008811800088118811861186120DF
:104CE000822081206118611861188118811881184B
:104CF0008118611040104008200840084008400812
:104D00004008200841080000242160104010E128DC
:104D1000E96AA439E539A531C6496D93697A846198
:104D2000E148A038A992E671A040056AC88AE56901
:104D3000A97A074AC6210812480A480A280A2712EF
:104D40002712261228122812281228122812281296
:104D50002812281228122812281228122812281283
:104D60002812281207120712071207120712070A41
:104D7000070A070A0712071207120712070A070A8B
:104D8000070A0712E8110812270A270A270A270A22
:104D90000712E811E809280A280AE611E6298D8B8E
:104DA000EB9A89A2E679078A078202492020A1406E
:104DB000488AC5794028E028C220A6292812480A36
:104DC0008519001061104008811040102008611002
:104DD0004010200800082010A220611861186118F6
:104DE000401841184118411861186118611881185C
:104DF0006110611040084008200820084008400861
:104E00004008400822104210453140186028803088
:104E1000E5598449A4492341E340EB9A288A088A4A
:104E2000236923614BA3C5712261888A8782466A00
:104E3000A85AE631E721081A0812290A480A480A3E
:104E40002712271228122812281228122812281294
:104E50002812281228122812281228122812281282
:104E6000281228120712071207120712070A070A48
:104E7000070A070A070A071207120712070A070A92
:104E8000070A071208120712270A270A270A071219
:104E90000712E811E8094912E701481A84190B6B57
:104EA000CEA3CA9A078A699A0782024960302459B8
:104EB0006992E6710018200840084519281A070A67
:104EC000C61161108110400881106110200820086F
:104ED0002008611040104010811861188120812045
:104EE00041188120612061186118611861186110F2
:104EF0006110611040084008400840082008200860
:104F00004008400801006210863920186028A03847
:104F1000A459266AA459A13800388A9A499A499A0C
:104F2000A681488A6A9B8471E681A99A677AC85AE1
:104F30004632051A071A081A091A2912490A480A94
:104F40004812281228122812281228122812281271
:104F50002812281228122812281228122812281281
:104F600028122812070A070A070A070A070A07125F
:104F70000712071207120712271207120712070A51
:104F80000712071207120712270A270A270A071211
:104F9000E711E811E811080A280A070AC619073AB2
:104FA0008D8B8D9B078AEBAA478A4359C140C671F6
:104FB0006A92235140108008A2102519E819070AA7
:104FC000071A81004008611061102008200840087D
:104FD00020080008000820088118C2206118611804
:104FE0006118812081208118611861186118611889
:104FF000411041104008400840084008200820089F
:105000002008400841006208C63140102010C1301D
:10501000C451255A424180280028A992EBAAA99A96
:1050200088920A9BC88AA471889A898A686AA84269
:10503000261226122712E819081A2912490A480AC4
:105040002812281A28122812281228122812281288
:105050002812281227122712271227122712271286
:1050600028122812070A070A070A070A070A07125E
:105070000712071207120712271207120712070A50
:10508000070A0712070A070A270A270A270A071228
:10509000E711E811E811E809480A070A071A85210B
:1050A000284ACE93CBA20BAB0682E6716461E77906
:1050B000098220282000C008242187290922070A04
:1050C000071A810040088110611020084008611013
:1050D00040084008200840108118C220411861187B
:1050E000611820106118611861186118611840106A
:1050F0002010200820084008400820082008200828
:10510000400840088100E208063280088010C12073
:1051100001292229C0188018402089828DB34BAB09
:105120008BAB8BA3678A4782C9926872684A062252
:10513000470A470A2812081A081A2812280A480A91
:1051400028120812281228122812281228122812AF
:105150002812281227122712271228122812281282
:1051600028122812070A070A070A070A070A070A65
:1051700007120712070A071207120712070A070A7F
:10518000070A070A070A270A270A270A070A07122F
:10519000E711E811E811080A280A280A0712C619B7
:1051A0008521EA5A8DAB0BA3E6814782277AE77106
:1051B0000451001040008000A2102621E821C709F8
:1051C00007120309A2188110600840082008000097
:1051D00020084008400840104010A1186118A22083
:1051E000A220611841186118611861184118401017
:1051F0002010200820084008200820084008400807
:105200004008400820000211C5296000A110A11823
:105210008010C118E218C1186020076A6CAB8CB30B
:10522000ABAB8AA3888A687A886A274A2732E61154
:105230004812280A2812281228122812280A28128E
:1052400008120812281228122812281228122812CE
:10525000281228122812281228122812281228127E
:1052600028122812070A070A070A070A070A070A64
:10527000070A070A070A070A070A070A070A070AA6
:10528000070A070A270A270A270A270A070A07120E
:10529000E711E811E811080A080A270A270A071A7D
:1052A000E72185196C9B4B9B888A067A477A08729E
:1052B00000204010A00860000000A410C821E711E1
:1052C000E719C200A21861104008400820084008F1
:1052D00061100000200840082008821881188118F9
:1052E0006118812081186118411840184018611018
:1052F0006110611040102008200820084008400874
:10530000400840082008A118A53160102008200896
:10531000A218E318C2186110402085610BA38CB35A
:105320006AAB69A3CA82065A2742E621E71128120E
:10533000091229122812480A470A4712281228126D
:1053400028120812281228122812281228122812AD
:10535000281228122812281228122812281228127D
:1053600028122812070A070A070A070A070A070A63
:1053700007120712071207120712070A070A070A7D
:10538000070A070A270A270A270A271207120712FD
:10539000E711E711E811080A280A280A270A071264
:1053A000071AE61943392B8B2B9B478207728559C5
:1053B0002018811080006008410821002509081A82
:1053C000E6190311811061104008400840084008A8
:1053D0002008200820082008401061188118611852
:1053E000811861188118812082208118411840108D
:1053F0004110611841106110400820084008400821
:105400004008400800106018C641201020102110EC
:105410008218C320E320611820200351898AA892B2
:10542000C88AA682E2308429E6212712080A0812D7
:10543000091A091A280A480A470A470A271227128E
:10544000281228122812281228122812281228128C
:105450002812281228122812271227122712271280
:1054600027122712070A070A070A070A070A070A64
:1054700007120712071207120712070A070A070A7C
:10548000070A070A270A270A270A271207120712FC
:10549000E711E711E711070A080A270A270A270A6E
:1054A000071207124321C549C982E992687A03416C
:1054B000601081088008601041100000C300E611F0
:1054C000E7210311811040104008400840084008BF
:1054D0002008400840082008401061186118611831
:1054E00061186018411861188118811861184118F5
:1054F00041104010611861104110400840084008F8
:1055000020084008201041108539611061184118A9
:105510006218C320A218A2184120413044592772B2
:10552000266221394319C5192712281208120912B7
:10553000E9190812280A4702470A27122712071AF0
:105540002812280A28122812281228122812281293
:10555000281228122812281227122712271227127F
:1055600027122712070A070A070A070A070A070A63
:1055700007120712070A07120712070A070A070A83
:10558000070A070A070A270A270A0712071207123B
:105590000712E711070A070A070A270A270A070A54
:1055A000070A0712C521E21822392249C1404020CA
:1055B0008110A10881084010201820088100C61120
:1055C000072224196110400840084008400840089C
:1055D000400840084108200840106118611841182F
:1055E0006018401841184118611861188118611835
:1055F0004118401041104110200820084008400880
:105600002008400821084108E31882106118201082
:105610004118A220A118A118812040206128243916
:105620002329A110E50906122812281209120912CD
:105630000912080A480A470A470A2712071A2712B6
:105640002712480A28122812281228122812281273
:10565000281228122812281227122712271227127E
:1056600027122712070A070A070A070A070A070A62
:1056700007120712070A070A070A070A070A070A92
:10568000070A070A270A071207120712071207124A
:105690000712070A070A070A070A070A070A070A7A
:1056A000070A070AE719A5212229E238E23823313F
:1056B000A210A208A11040100010611081008511F5
:1056C000E72104194010400820082008400840083D
:1056D00040084008400820084110811861186118EE
:1056E0006120612081186118611861188118811882
:1056F0006118611840104010200820084008400838
:105700004008400841082100620861104110201043
:1057100020188118A1208118812081286120C220B1
:10572000C21085196702480A28120812E8110912E6
:105730002912480A280A270A271227122712271295
:10574000270A480A2812281228122812281228127A
:10575000281228122812281227122712271227127D
:1057600027122712070A070A070A07120712071249
:10577000070A070A070A070A070A070A070A070AA1
:10578000070A070A07120712071207120712070A69
:10579000070A070A070A070A070A070A070A070A81
:1057A000070A070AE8110722642102290239033196
:1057B0008210C31081104018001061106100851123
:1057C000E721C208400820082008200820084008D7
:1057D00040084008200820086110821882186118CB
:1057E0006120612081208118611861186118811879
:1057F000821882186118611840102008400840087B
:105800002008400842084108410861102010201873
:10581000201840188118A12081208120A32804216C
:105820000311E7216802480A0812E811E81128125A
:105830004812480A280A27120712071A27122712A5
:10584000280A280A28122812281228122812281298
:10585000281228122812281227122712271227127C
:1058600027122712070A070A070A07120712071248
:10587000070A070A070A07120712070A070A070A90
:10588000070A070A07120712071208120812270A46
:10589000270A270A270A070A070A07120712071208
:1058A000070A070AE909C709C62143292339043130
:1058B000C31862086110601820182008400085197C
:1058C000282AE30020082008400820084008410852
:1058D00040082108200820086110821881186118EA
:1058E00061186118611861186118811861186118D0
:1058F000611861188118611841102008400840089B
:10590000200840084108610841084108201041185A
:10591000201020104010A11881208220C328E418F4
:10592000041107222702080A081208120812281276
:10593000480A280A2812081A081A081228122812D7
:105940002812281228122812281228122812281287
:10595000281228122812281227122712271227127B
:1059600027122712070A070A070A070A070A070A5F
:10597000071207120712071207120712070A070A6F
:10598000070A07120712071207120812080A280A44
:10599000270A270A270A070A0712071207120712FF
:1059A0000712070A0A12080A061A2219C228E43046
:1059B000C420420841084010401020084100241132
:1059C000E721240920082008401040084008410829
:1059D0004108210821082008411082186118411847
:1059E000611861184118611861186118611861180F
:1059F00061186118611861102010200840084008E3
:105A0000400840084008400860084008200861102D
:105A100020084008400861088110A218A218A210AE
:105A200064112722E811081207122712270A270AF1
:105A300027120712071A081A081208122812280A31
:105A400028120812281228122812281228122812A6
:105A5000281228122812281227122712271227127A
:105A6000271227120712070A070A070A070A070A56
:105A7000071227120712071207120712070A070A4E
:105A8000071207120712071208120812080A280A3A
:105A9000270A270A270A070A06120712E711071220
:105AA00007120712C9012912061243198118622030
:105AB0002110421061104010401060104100610040
:105AC00065110301200820084010400840084108E3
:105AD0004108210841082008411082186118411826
